:100000000C944D000C946C000C946C000C946C00DF
:100010000C946C000C946C000C946C000C946C00B0
:100020000C946C000C946C000C946C000C946C00A0
:100030000C946C000C94EA000C946C000C946C0012
:100040000C946C000C946C000C946C000C946C0080
:100050000C946C000C946C000C946C000C946C0070
:100060000C946C000C946C000C946C000C946C0060
:100070000C946C000C946C000C946C000C946C0050
:100080000C946C000C946C000C946C00C103C603BF
:1000900007041B0443042F04570411241FBECFEF91
:1000A000D0E4DEBFCDBF11E0A0E0B1E0E0EDF4E1CF
:1000B00000E00BBF02C007900D92AC37B107D9F733
:1000C00021E0ACE7B1E001C01D92A83AB207E1F728
:1000D0000E94FC060C94660A0C940000CF93DF93F8
:1000E00000D000D0CDB7DEB769837A838B839C8341
:1000F00089819A81AB81BC81809300019093010139
:10010000A0930201B093030180910001909101013D
:10011000A0910201B091030180937D0190937E0133
:10012000A0937F01B093800100000F900F900F907B
:100130000F90DF91CF910895CF93DF93CDB7DEB7C6
:1001400081E890E02BE0FC01208388E890E02DE737
:1001500030E0FC01318320838FE690E022E0FC0157
:10016000208384E890E0FC011182108280910001DC
:1001700090910101A0910201B091030180937D0152
:1001800090937E01A0937F01B09380018FE590E072
:100190002FE530E0F90120812068FC012083000078
:1001A000DF91CF910895CF93DF93CDB7DEB781E88C
:1001B00090E0FC0110820000DF91CF910895CF9371
:1001C000DF93CDB7DEB781E080937C010000DF9143
:1001D000CF9108951F920F9200905F000F9211240B
:1001E00000905B000F922F933F934F935F936F9319
:1001F0007F938F939F93AF93BF93EF93FF93CF938F
:10020000DF93CDB7DEB780917D0190917E01A09103
:100210007F01B09180010197A109B10980937D010F
:1002200090937E01A0937F01B093800180917D0126
:1002300090917E01A0917F01B0918001892B8A2B42
:100240008B2B91F40E94DF008091000190910101BD
:10025000A0910201B091030180937D0190937E01F2
:10026000A0937F01B09380010000DF91CF91FF91B7
:10027000EF91BF91AF919F918F917F916F915F911E
:100280004F913F912F910F9000925B000F90009241
:100290005F000F901F901895CF93DF9300D01F92AF
:1002A000CDB7DEB789836A834B838B81882371F056
:1002B0008A81282F30E081E090E002C0880F991FEA
:1002C0002A95E2F7982F8981892B0EC08A81282FE1
:1002D00030E081E090E002C0880F991F2A95E2F794
:1002E000982F9095898189230F900F900F90DF911F
:1002F000CF910895CF93DF9300D0CDB7DEB7898338
:100300006A838A81282F30E081E090E002C0880F64
:10031000991F2A95E2F7982F898189230F900F90D2
:10032000DF91CF910895CF93DF93CDB7DEB788E209
:1003300090E02FEEFC012083000086E290E0FC01BB
:10034000808160E00E947A01882311F481E3B8C0C3
:1003500086E290E0FC01808161E00E947A018823BE
:1003600011F484E3ADC086E290E0FC01808162E09C
:100370000E947A01882311F487E3A2C086E290E00C
:10038000FC01808163E00E947A01882311F48AE2F3
:1003900097C088E290E02FEDFC012083000086E208
:1003A00090E0FC01808160E00E947A01882311F4D2
:1003B00082E386C086E290E0FC01808161E00E94D9
:1003C0007A01882311F485E37BC086E290E0FC018A
:1003D000808162E00E947A01882311F488E370C072
:1003E00086E290E0FC01808163E00E947A0188232C
:1003F00011F480E365C088E290E02FEBFC012083DC
:10040000000086E290E0FC01808160E00E947A01B9
:10041000882311F483E354C086E290E0FC018081DC
:1004200061E00E947A01882311F486E349C086E2E4
:1004300090E0FC01808162E00E947A01882311F43F
:1004400089E33EC086E290E0FC01808163E00E9487
:100450007A01882311F483E233C088E290E02FE729
:10046000FC012083000086E290E0FC01808160E0D6
:100470000E947A01882311F481E422C086E290E090
:10048000FC01808161E00E947A01882311F482E4FA
:1004900017C086E290E0FC01808162E00E947A0150
:1004A000882311F483E40CC086E290E0FC01808193
:1004B00063E00E947A01882311F484E401C080E0A3
:1004C000DF91CF910895CF93DF93CDB7DEB72C970F
:1004D0000FB6F894DEBF0FBECDBF6D837E838F83D2
:1004E000988729873A874B875C878D819E81AF816A
:1004F000B88529853A854B855C85BC01CD010E9474
:10050000A708DC01CB0189839A83AB83BC838981F3
:100510009A81AB81BC81892B8A2B8B2B29F489850D
:100520009A85AB85BC8511C089859A85AB85BC85CC
:100530008D839E83AF83B88789819A81AB81BC818B
:1005400089879A87AB87BC87D0CFBC01CD012C9619
:100550000FB6F894DEBF0FBECDBFDF91CF910895E7
:100560000F931F93CF93DF9300D000D0CDB7DEB7AA
:1005700069837A838B839C8380918101909182012E
:10058000A0918301B09184019C01AD0169817A81C0
:100590008B819C810E94D208882309F477C020E0D7
:1005A00030E0A90169817A818B819C810E94D20807
:1005B000882351F481E990E021E930E0F9012081BC
:1005C0002870FC01208309C081E990E021E930E036
:1005D000F90120812360FC01208328E539E344E709
:1005E0005FE369817A818B819C810E94D208882394
:1005F00044F488E990E02FEF3FEFFC013183208342
:1006000034C020E03CE24BEF56E469817A818B8173
:100610009C810E94F409181634F488E990E0FC01EA
:100620001182108222C008E910E020E030E040E0B2
:1006300053E469817A818B819C810E94F909DC01F4
:10064000CB019C01AD0160E074E284EF9AE40E946A
:10065000D708DC01CB01BC01CD010E944909DC01B6
:10066000CB010197F8019183808384E990E0FC013C
:100670001182108289819A81AB81BC818093810132
:1006800090938201A0938301B093840100000F90A6
:100690000F900F900F90DF91CF911F910F910895C0
:1006A000CF93DF93CDB7DEB780E990E020E4FC0183
:1006B000208381E990E02BE0FC01208360E070E082
:1006C000CB010E94B0020000DF91CF910895CF933B
:1006D000DF93CDB7DEB780E990E0FC01108281E9BD
:1006E00090E0FC0110820000DF91CF910895CF933C
:1006F000DF9300D01F92CDB7DEB789837B836A83F7
:1007000089818A3031F48A819B81BC018DE00E940D
:10071000770380EC90E0FC018081882F90E080726C
:100720009927892BB1F386EC90E02981FC01208385
:1007300080E090E00F900F900F90DF91CF9108959F
:10074000CF93DF93CDB7DEB72C970FB6F894DEBF0B
:100750000FBECDBF9C878B878B859C85092E000C97
:10076000AA0BBB0B40E050E026E030E0841B950B69
:100770002817390708F4B1C08A5B9F4FFC010C941D
:10078000C90881E090E09C878B87A8C080E290E058
:10079000FC018081882F90E081709927892B29F4B2
:1007A00082E090E09C878B8799C080E290E0FC011A
:1007B0008081882F90E082709927892B29F483E02B
:1007C00090E09C878B878AC080E290E0FC0180816A
:1007D000882F90E084709927892B29F485E090E098
:1007E0009C878B877BC080E290E0FC018081882F12
:1007F00090E088709927892B29F484E090E09C8709
:100800008B876CC081E090E09C878B8767C080E21B
:1008100090E0FC018081882F90E081709927892BDE
:1008200029F486E090E09C878B8758C081E090E0B7
:100830009C878B8753C080E290E0FC018081882FE9
:1008400090E082709927892B29F486E090E09C87BC
:100850008B8744C081E090E09C878B873FC080E21B
:1008600090E0FC018081882F90E084709927892B8B
:1008700029F486E090E09C878B8730C081E090E08F
:100880009C878B872BC080E290E0FC018081882FC1
:1008900090E088709927892B29F486E090E09C8766
:1008A0008B871CC081E090E09C878B8717C080E21B
:1008B00090E0FC018081882F90E0809590958F706A
:1008C0009927892B29F086E090E09C878B8706C0CA
:1008D00081E090E09C878B8701C000008B859C8520
:1008E0008330910509F465C0843091053CF4813072
:1008F000910509F431C1029769F039C1853091053C
:1009000009F4A0C0853091050CF4E1C0069709F404
:1009100025C12DC1809113018E3F29F480911301CF
:10092000809313011DC1809113018E3F09F418C1FA
:1009300080911301869580688093130180916601F0
:100940009091670102970CF40BC180916601909120
:1009500067019A8389831FC089819A8101978A5E82
:100960009E4FFC01208189819A818A5E9E4FFC0105
:10097000208389819A810197865D9E4FFC012081A9
:1009800089819A81865D9E4FFC01208389819A81AD
:1009900001979A83898389819A8118161906E4F24E
:1009A00080911301809316018091120180932A0196
:1009B000D7C0809113018F3E09F4D4C080911301F8
:1009C000882F90E0880F991F816080931301809198
:1009D00066019091670102970CF4C4C08091660192
:1009E000909167019C838B831FC08B819C810197B1
:1009F0008A5E9E4FFC0120818B819C818A5E9E4F86
:100A0000FC0120838B819C810197865D9E4FFC01B8
:100A100020818B819C81865D9E4FFC0120838B8190
:100A20009C8101979C838B838B819C81181619066E
:100A3000E4F280911301809316018091120180935A
:100A40002A0190C080911201803809F48DC08091F4
:100A50001201880F809312018091660190916701C5
:100A600002970CF481C080916601909167019E838A
:100A70008D831FC08D819E810197865D9E4FFC01F5
:100A800020818D819E81865D9E4FFC0120838D811A
:100A90009E8101978A5E9E4FFC0120818D819E81FF
:100AA0008A5E9E4FFC0120838D819E8101979E83EB
:100AB0008D838D819E8118161906E4F280911301B1
:100AC000809316018091120180932A014DC080917C
:100AD0001201813009F44AC08091120186958093F9
:100AE0001201809166019091670102970CF43EC05B
:100AF000809166019091670198878F831FC08F81D5
:100B000098850197865D9E4FFC0120818F81988595
:100B1000865D9E4FFC0120838F81988501978A5EB8
:100B20009E4FFC0120818F8198858A5E9E4FFC013B
:100B300020838F819885019798878F838F819885EF
:100B400018161906E4F28091130180931601809122
:100B5000120180932A010AC0000009C0000007C0EA
:100B6000000005C0000003C0000001C0000090911B
:100B70001201809115019817C1F590911301809190
:100B80001401981791F5109214011092150180919B
:100B900066019091670101969093670180936601C9
:100BA0008091660190916701209166013091670103
:100BB000215031092A5E3E4FF90120818A5E9E4F05
:100BC000FC0120838091660190916701209166016C
:100BD0003091670121503109265D3E4FF901208196
:100BE0002695865D9E4FFC01208381E090E09A87E8
:100BF000898722C089859A858A5E9E4FFC019081F3
:100C000080911301981799F489859A85865D9E4F86
:100C1000FC01908180911201981749F41092130100
:100C20001092120185E290E020E1FC012083898589
:100C30009A8501969A8789878091660190916701CC
:100C400029853A8528173907ACF28B859C852C9627
:100C50000FB6F894DEBF0FBECDBFDF91CF910895E0
:100C6000CF93DF93CDB7DEB70000DF91CF9108952A
:100C7000CF93DF9300D0CDB7DEB79A83898300008E
:100C80000F900F90DF91CF910895CF93DF93CDB761
:100C9000DEB728970FB6F894DEBF0FBECDBF98879A
:100CA0008F8380911301882309F485C080911201FC
:100CB000882309F480C01A82198277C01C821B82A3
:100CC0006AC01E821D8235C089819A8188599E4FD3
:100CD000FC0120818D819E818A5E9E4FFC01808176
:100CE000281711F58B819C8183599E4FFC0120812F
:100CF0008D819E81865D9E4FFC0180812817A1F425
:100D00008BE290E029813A8128593E4FF9012081F8
:100D1000FC01208388E290E02B813C8123593E4FE7
:100D2000F9012081FC0120838D819E8101969E83A3
:100D30008D8380916601909167012D813E812817F6
:100D4000390714F289819A8188599E4FFC0190815C
:100D5000809114019817D1F48B819C8183599E4F07
:100D6000FC01908180911501981781F48091140104
:100D7000882361F08BE290E020911401FC01208334
:100D800088E290E020911501FC0120838B819C81F9
:100D900001969C838B838B819C8108970CF491CF67
:100DA00089819A8101969A83898389819A8105979D
:100DB0000CF484CF08C088E290E0FC0110828BE242
:100DC00090E0FC0110828F81988528960FB6F894E8
:100DD000DEBF0FBECDBFDF91CF910895CF93DF93DC
:100DE00000D0CDB7DEB79A83898389819A810F902D
:100DF0000F90DF91CF9108950F931F93CF93DF93BF
:100E0000CDB7DEB72B970FB6F894DEBF0FBECDBFC0
:100E100081E290E0FC01108282E290E02FEFFC0181
:100E2000208384E290E0FC01108285E290E02FEFC5
:100E3000FC01208387E290E02FEFFC01208388E211
:100E400090E0FC0110828AE290E02FEFFC01208309
:100E50008BE290E0FC01108286E0E5E7F1E0DE0144
:100E6000169601900D928A95E1F783E090E09C83BD
:100E70008B831D828D818093850184E690E0A0E0C4
:100E8000B0E08093860190938701A0938801B0938E
:100E900089018091860190918701A0918801B0918C
:100EA000890180938A0190938B01A0938C01B09368
:100EB0008D0180EA93E090938F0180938E0181E011
:100EC00090E0A0E0B0E08093910190939201A09314
:100ED0009301B09394018091910190919201A0911E
:100EE0009301B09194018093950190939601A09302
:100EF0009701B093980185E496E090939A018093CE
:100F0000990184E690E0A0E0B0E080939C0190938A
:100F10009D01A0939E01B0939F0180919C019091AF
:100F20009D01A0919E01B0919F018093A00190939B
:100F3000A101A093A201B093A3018EEE96E090933D
:100F4000A5018093A40161E070E080E090E00E9440
:100F50006E000E949C0080E290E0FC018081882F5E
:100F600090E081709927892B29F485E290E021E0B7
:100F7000FC01208380E290E0FC018081882F90E0DA
:100F800082709927892B29F485E290E022E0FC0108
:100F9000208380E290E0FC018081882F90E08470C3
:100FA0009927892B29F485E290E024E0FC01208335
:100FB00080E290E0FC018081882F90E08870992782
:100FC000892B29F485E290E028E0FC0120831A8235
:100FD0001982ADC089819A81880F991F9E012F5F68
:100FE0003F4F820F931F0596FC0180819181FC0188
:100FF000258136814781508589819A81880F991F83
:10100000BE016F5F7F4F860F971F0596FC018081A1
:101010009181FC0181819281A381B48128173907D4
:101020004A075B0708F445C089819A81880F991F98
:101030009E012F5F3F4F820F931F0596FC01008199
:10104000118189819A81880F991F9E012F5F3F4FDF
:10105000820F931F0596FC0180819181FC012185FF
:10106000328589819A81880F991FAE014F5F5F4F4A
:10107000840F951F0596FC0180819181FC01808180
:10108000082E000C990BF9010995F80180838981DC
:101090009A81880F991F9E012F5F3F4F820F931FE8
:1010A0000596FC0180819181FC01158216821782D0
:1010B000108689819A81880F991F9E012F5F3F4F6B
:1010C000820F931F0596FC016081718189819A814D
:1010D000880F991F9E012F5F3F4F820F931F059628
:1010E000FC0180819181FC012581368147815085F9
:1010F00089819A81880F991FFE0131968E0F9F1F5B
:101100000596FC0180819181FC0181819281A381FE
:10111000B481820F931FA41FB51FFB0185839683A3
:10112000A783B08789819A8101969A8389832981CF
:101130003A818B819C812817390708F44BCF000036
:1011400080917C018823E1F310927C0104CFA1E21D
:101150001A2EAA1BBB1BFD010DC0AA1FBB1FEE1F31
:10116000FF1FA217B307E407F50720F0A21BB30B7C
:10117000E40BF50B661F771F881F991F1A9469F7F8
:1011800060957095809590959B01AC01BD01CF0154
:101190000895EE0FFF1F0024001C0BBE0790F69170
:1011A000E02D09940E947F0908F481E008950E94CF
:1011B000EB080C94BA090E94B30958F00E94AC09DC
:1011C00040F029F45F3F29F00C94A30951110C94CD
:1011D000EE090C94A9090E94CB0968F39923B1F395
:1011E000552391F3951B550BBB27AA27621773074D
:1011F000840738F09F5F5F4F220F331F441FAA1FE1
:10120000A9F335D00E2E3AF0E0E832D0915050409C
:10121000E695001CCAF72BD0FE2F29D0660F771F4A
:10122000881FBB1F261737074807AB07B0E809F030
:10123000BB0B802DBF01FF2793585F4F3AF09E3FB5
:10124000510578F00C94A3090C94EE095F3FE4F388
:10125000983ED4F3869577956795B795F7959F5FF8
:10126000C9F7880F911D9695879597F90895E1E044
:10127000660F771F881FBB1F621773078407BA07A3
:1012800020F0621B730B840BBA0BEE1F88F7E095FE
:1012900008950E9450096894B1110C94EE090895C4
:1012A0000E94D30988F09F5798F0B92F9927B7511A
:1012B000B0F0E1F0660F771F881F991F1AF0BA95FA
:1012C000C9F714C0B13091F00E94ED09B1E0089562
:1012D0000C94ED09672F782F8827B85F39F0B93F54
:1012E000CCF3869577956795B395D9F73EF49095AD
:1012F0008095709561957F4F8F4F9F4F0895990FFF
:101300000008550FAA0BE0E8FEEF16161706E807CF
:10131000F907C0F012161306E407F50798F0621BF0
:10132000730B840B950B39F40A2661F0232B242BC5
:10133000252B21F408950A2609F4A140A6958FEFE4
:10134000811D811D089597F99F6780E870E060E036
:1013500008959FEF80EC089500240A94161617064E
:1013600018060906089500240A9412161306140696
:1013700005060895092E0394000C11F4882352F0F9
:10138000BB0F40F4BF2B11F460FF04C06F5F7F4FB1
:101390008F4F9F4F089557FD9058440F551F59F098
:1013A0005F3F71F04795880F97FB991F61F09F3F52
:1013B00079F087950895121613061406551FF2CF7B
:1013C0004695F1DF08C0161617061806991FF1CFCB
:1013D00086957105610508940895E894BB276627F2
:1013E0007727CB0197F908950E947F0908F48FEFC2
:1013F00008950E940C0A0C94BA090E94AC0938F0B6
:101400000E94B30920F0952311F00C94A3090C94C9
:10141000A90911240C94EE090E94CB0970F3959F41
:10142000C1F3950F50E0551F629FF001729FBB27DB
:10143000F00DB11D639FAA27F00DB11DAA1F649F77
:101440006627B00DA11D661F829F2227B00DA11D2A
:10145000621F739FB00DA11D621F839FA00D611DB0
:10146000221F749F3327A00D611D231F849F600DD1
:10147000211D822F762F6A2F11249F5750409AF0FA
:10148000F1F088234AF0EE0FFF1FBB1F661F771F86
:10149000881F91505040A9F79E3F510580F00C9451
:1014A000A3090C94EE095F3FE4F3983ED4F38695CC
:1014B00077956795B795F795E7959F5FC1F7FE2BF1
:1014C000880F911D9695879597F90895F894FFCF09
:1014D000010000000000000200000000770300008F
:1014E000000008FBFB80FBFBFBFB00000000000092
:1014F00000000000000000000000080402010000DD
:1015000000000000000000000000000000000000DB
:1015100000000000000000000000000000000000CB
:1015200000000101010100000000000000000000B7
:101530000000000000000400FEFDFBF7EF804020EB
:0C1540001008040201850190019B0100CD
:00000001FF
