:100000000C944D000C946C000C946C000C946C00DF
:100010000C946C000C946C000C946C000C946C00B0
:100020000C946C000C946C000C946C000C946C00A0
:100030000C946C000C94EA000C946C000C946C0012
:100040000C946C000C946C000C946C000C946C0080
:100050000C946C000C946C000C946C000C946C0070
:100060000C946C000C946C000C946C000C946C0060
:100070000C946C000C946C000C946C000C946C0050
:100080000C946C000C946C000C946C00C103C603BF
:1000900007041B0443042F04570411241FBECFEF91
:1000A000D0E4DEBFCDBF11E0A0E0B1E0EAEFF7E1C0
:1000B00000E00BBF02C007900D92A036B107D9F740
:1000C00021E0A0E6B1E001C01D92AB3AB207E1F732
:1000D0000E9421080C94FB0B0C940000CF93DF933B
:1000E00000D000D0CDB7DEB769837A838B839C8341
:1000F00089819A81AB81BC81809300019093010139
:10010000A0930201B093030180910001909101013D
:10011000A0910201B091030180936101909362016B
:10012000A0936301B093640100000F900F900F90B3
:100130000F90DF91CF910895CF93DF93CDB7DEB7C6
:1001400081E890E02BE0FC01208388E890E02DE737
:1001500030E0FC01318320838FE690E022E0FC0157
:10016000208384E890E0FC011182108280910001DC
:1001700090910101A0910201B0910301809361016E
:1001800090936201A0936301B09364018FE590E0C6
:100190002FE530E0F90120812068FC012083000078
:1001A000DF91CF910895CF93DF93CDB7DEB781E88C
:1001B00090E0FC0110820000DF91CF910895CF9371
:1001C000DF93CDB7DEB781E0809360010000DF915F
:1001D000CF9108951F920F9200905F000F9211240B
:1001E00000905B000F922F933F934F935F936F9319
:1001F0007F938F939F93AF93BF93EF93FF93CF938F
:10020000DF93CDB7DEB78091610190916201A0913B
:100210006301B09164010197A109B1098093610163
:1002200090936201A0936301B09364018091610196
:1002300090916201A0916301B0916401892B8A2B96
:100240008B2B91F40E94DF008091000190910101BD
:10025000A0910201B091030180936101909362012A
:10026000A0936301B09364010000DF91CF91FF91EF
:10027000EF91BF91AF919F918F917F916F915F911E
:100280004F913F912F910F9000925B000F90009241
:100290005F000F901F901895CF93DF9300D01F92AF
:1002A000CDB7DEB789836A834B838B81882371F056
:1002B0008A81282F30E081E090E002C0880F991FEA
:1002C0002A95E2F7982F8981892B0EC08A81282FE1
:1002D00030E081E090E002C0880F991F2A95E2F794
:1002E000982F9095898189230F900F900F90DF911F
:1002F000CF910895CF93DF9300D0CDB7DEB7898338
:100300006A838A81282F30E081E090E002C0880F64
:10031000991F2A95E2F7982F898189230F900F90D2
:10032000DF91CF910895CF93DF93CDB7DEB788E209
:1003300090E02FEEFC012083000086E290E0FC01BB
:10034000808160E00E947A01882311F481E3B8C0C3
:1003500086E290E0FC01808161E00E947A018823BE
:1003600011F484E3ADC086E290E0FC01808162E09C
:100370000E947A01882311F487E3A2C086E290E00C
:10038000FC01808163E00E947A01882311F48AE2F3
:1003900097C088E290E02FEDFC012083000086E208
:1003A00090E0FC01808160E00E947A01882311F4D2
:1003B00082E386C086E290E0FC01808161E00E94D9
:1003C0007A01882311F485E37BC086E290E0FC018A
:1003D000808162E00E947A01882311F488E370C072
:1003E00086E290E0FC01808163E00E947A0188232C
:1003F00011F480E365C088E290E02FEBFC012083DC
:10040000000086E290E0FC01808160E00E947A01B9
:10041000882311F483E354C086E290E0FC018081DC
:1004200061E00E947A01882311F486E349C086E2E4
:1004300090E0FC01808162E00E947A01882311F43F
:1004400089E33EC086E290E0FC01808163E00E9487
:100450007A01882311F483E233C088E290E02FE729
:10046000FC012083000086E290E0FC01808160E0D6
:100470000E947A01882311F481E422C086E290E090
:10048000FC01808161E00E947A01882311F482E4FA
:1004900017C086E290E0FC01808162E00E947A0150
:1004A000882311F483E40CC086E290E0FC01808193
:1004B00063E00E947A01882311F484E401C080E0A3
:1004C000DF91CF910895CF93DF93CDB7DEB72C970F
:1004D0000FB6F894DEBF0FBECDBF6D837E838F83D2
:1004E000988729873A874B875C878D819E81AF816A
:1004F000B88529853A854B855C85BC01CD010E9474
:100500003C0ADC01CB0189839A83AB83BC8389815C
:100510009A81AB81BC81892B8A2B8B2B29F489850D
:100520009A85AB85BC8511C089859A85AB85BC85CC
:100530008D839E83AF83B88789819A81AB81BC818B
:1005400089879A87AB87BC87D0CFBC01CD012C9619
:100550000FB6F894DEBF0FBECDBFDF91CF910895E7
:100560000F931F93CF93DF9300D000D0CDB7DEB7AA
:1005700069837A838B839C83809165019091660166
:10058000A0916701B09168019C01AD0169817A81F8
:100590008B819C810E94670A882309F477C020E040
:1005A00030E0A90169817A818B819C810E94670A70
:1005B000882351F481E990E021E930E0F9012081BC
:1005C0002870FC01208309C081E990E021E930E036
:1005D000F90120812360FC01208328E539E344E709
:1005E0005FE369817A818B819C810E94670A8823FD
:1005F00044F488E990E02FEF3FEFFC013183208342
:1006000034C020E03CE24BEF56E469817A818B8173
:100610009C810E94890B181634F488E990E0FC0153
:100620001182108222C008E910E020E030E040E0B2
:1006300053E469817A818B819C810E948E0BDC015D
:10064000CB019C01AD0160E074E284EF9AE40E946A
:100650006C0ADC01CB01BC01CD010E94DE0ADC0189
:10066000CB010197F8019183808384E990E0FC013C
:100670001182108289819A81AB81BC81809365014E
:1006800090936601A0936701B093680100000F90FA
:100690000F900F900F90DF91CF911F910F910895C0
:1006A000CF93DF93CDB7DEB780E990E020E4FC0183
:1006B000208381E990E02BE0FC01208360E070E082
:1006C000CB010E94B0020000DF91CF910895CF933B
:1006D000DF93CDB7DEB780E990E0FC01108281E9BD
:1006E00090E0FC0110820000DF91CF910895CF933C
:1006F000DF9300D01F92CDB7DEB789837B836A83F7
:1007000089818A3031F48A819B81BC018DE00E940D
:10071000770380EC90E0FC018081882F90E080726C
:100720009927892BB1F386EC90E02981FC01208385
:1007300080E090E00F900F900F90DF91CF9108959F
:10074000CF93DF93CDB7DEB72A970FB6F894DEBF0D
:100750000FBECDBF9A87898789859A85092E000C9F
:10076000AA0BBB0B40E050E026E030E0841B950B69
:100770002817390708F4B1C08A5B9F4FFC010C941D
:100780005E0A81E090E09A878987A8C080E290E0C5
:10079000FC018081882F90E081709927892B29F4B2
:1007A00082E090E09A87898799C080E290E0FC011E
:1007B0008081882F90E082709927892B29F483E02B
:1007C00090E09A8789878AC080E290E0FC0180816E
:1007D000882F90E084709927892B29F485E090E098
:1007E0009A8789877BC080E290E0FC018081882F16
:1007F00090E088709927892B29F484E090E09A870B
:1008000089876CC081E090E09A87898767C080E221
:1008100090E0FC018081882F90E081709927892BDE
:1008200029F486E090E09A87898758C081E090E0BB
:100830009A87898753C080E290E0FC018081882FED
:1008400090E082709927892B29F486E090E09A87BE
:10085000898744C081E090E09A8789873FC080E221
:1008600090E0FC018081882F90E084709927892B8B
:1008700029F486E090E09A87898730C081E090E093
:100880009A8789872BC080E290E0FC018081882FC5
:1008900090E088709927892B29F486E090E09A8768
:1008A00089871CC081E090E09A87898717C080E221
:1008B00090E0FC018081882F90E0809590958F706A
:1008C0009927892B29F086E090E09A87898706C0CE
:1008D00081E090E09A87898701C0000089859A8528
:1008E0008330910509F465C0843091053CF4813072
:1008F000910509F431C1029769F039C1853091053C
:1009000009F4A0C0853091050CF4E1C0069709F404
:1009100025C12DC1809113018E3F29F480911301CF
:10092000809313011DC1809113018E3F09F418C1FA
:100930008091130186958068809313018091440112
:100940009091450102970CF40BC180914401909164
:1009500045019A8389831FC089819A810197845EAA
:100960009E4FFC01208189819A81845E9E4FFC010B
:10097000208389819A810197805D9E4FFC012081AF
:1009800089819A81805D9E4FFC01208389819A81B3
:1009900001979A83898389819A8118161906E4F24E
:1009A0008091130180931C0180911201809330018A
:1009B000D7C0809113018F3E09F4D4C080911301F8
:1009C000882F90E0880F991F816080931301809198
:1009D00044019091450102970CF4C4C080914401F8
:1009E000909145019C838B831FC08B819C810197D3
:1009F000845E9E4FFC0120818B819C81845E9E4F92
:100A0000FC0120838B819C810197805D9E4FFC01BE
:100A100020818B819C81805D9E4FFC0120838B8196
:100A20009C8101979C838B838B819C81181619066E
:100A3000E4F28091130180931C0180911201809354
:100A4000300190C080911201803809F48DC08091EE
:100A50001201880F80931201809144019091450109
:100A600002970CF481C080914401909145019E83CE
:100A70008D831FC08D819E810197805D9E4FFC01FB
:100A800020818D819E81805D9E4FFC0120838D8120
:100A90009E810197845E9E4FFC0120818D819E8105
:100AA000845E9E4FFC0120838D819E8101979E83F1
:100AB0008D838D819E8118161906E4F280911301B1
:100AC00080931C0180911201809330014DC0809170
:100AD0001201813009F44AC08091120186958093F9
:100AE0001201809144019091450102970CF43EC09F
:100AF000809144019091450198878F831FC08F8119
:100B000098850197805D9E4FFC0120818F8198859B
:100B1000805D9E4FFC0120838F8198850197845EC4
:100B20009E4FFC0120818F819885845E9E4FFC0141
:100B300020838F819885019798878F838F819885EF
:100B400018161906E4F28091130180931C0180911C
:100B50001201809330010AC0000009C0000007C0E4
:100B6000000005C0000003C0000001C0000089852E
:100B70009A852A960FB6F894DEBF0FBECDBFDF91DF
:100B8000CF910895CF93DF9300D000D0CDB7DEB7DB
:100B90009C838B838B819C81892B09F003C01C82F1
:100BA0001B8200008B819C81892B09F05DC01A8219
:100BB000198254C089819A81885E9E4FFC01908180
:100BC00080911201981709F044C089819A818C5E46
:100BD0009E4FFC019081809113019817D1F5898176
:100BE0009A818C5E9E4FFC01108289819A81885E79
:100BF0009E4FFC0110828091440190914501019625
:100C00009093450180934401809144019091450166
:100C1000209144013091450121503109245E3E4F1D
:100C2000F9012081845E9E4FFC0120838091440164
:100C300090914501209144013091450121503109A5
:100C4000205D3E4FF90120812695805D9E4FFC017D
:100C5000208389819A8101969A83898389819A81E7
:100C600004970CF4A7CF00008B819C810F900F900C
:100C70000F900F90DF91CF910895CF93DF93CDB771
:100C8000DEB728970FB6F894DEBF0FBECDBF9887AA
:100C90008F838F819885892B09F001C000008F8197
:100CA0009885892B09F070C080911301882309F47D
:100CB00061C080911201882309F45CC01A821982F4
:100CC00053C01C821B8246C01E821D8235C0898192
:100CD0009A818A5B9E4FFC0120818D819E81845E7A
:100CE0009E4FFC018081281711F58B819C81855BCB
:100CF0009E4FFC0120818D819E81805D9E4FFC0175
:100D000080812817A1F48BE290E029813A812A5B47
:100D10003E4FF9012081FC01208388E290E02B8185
:100D20003C81255B3E4FF9012081FC0120838D81B0
:100D30009E8101969E838D8380914401909145010F
:100D40002D813E812817390714F28B819C810196F1
:100D50009C838B838B819C8108970CF4B5CF898110
:100D60009A8101969A83898389819A8105970CF4E7
:100D7000A8CF09C088E290E0FC0110828BE290E0ED
:100D8000FC01108200C000008F81988528960FB664
:100D9000F894DEBF0FBECDBFDF91CF910895CF9302
:100DA000DF93CDB7DEB728970FB6F894DEBF0FBE3E
:100DB000CDBF98878F838F819885892B09F003C0D9
:100DC00018861F8200008F819885892B09F057C0F3
:100DD0001A8219824EC01C821B8241C01E821D8253
:100DE00035C089819A818A5B9E4FFC0120818D816B
:100DF0009E818C5E9E4FFC018081281711F58B81AE
:100E00009C81855B9E4FFC0120818D819E81885E47
:100E10009E4FFC0180812817A1F48BE290E029818C
:100E20003A812A5B3E4FF9012081FC01208388E250
:100E300090E02B813C81255B3E4FF9012081FC0134
:100E400020838D819E8101969E838D838D819E81DD
:100E500004973CF28B819C8101969C838B838B81D0
:100E60009C8108970CF4BACF89819A8101969A8364
:100E7000898389819A8105970CF4ADCF00008F8119
:100E8000988528960FB6F894DEBF0FBECDBFDF91D0
:100E9000CF910895CF93DF9300D000D0CDB7DEB7C8
:100EA0009C838B838B819C81892B09F003C01C82DE
:100EB0001B8200008B819C81892B09F056C081E048
:100EC00090E09A83898346C089819A81845E9E4F8F
:100ED000FC019081809113019817A1F489819A8176
:100EE000805D9E4FFC01908180911201981751F412
:100EF000109213011092120185E290E020E1FC01B2
:100F0000208323C0809113018F3F21F08091130132
:100F10008F3E50F4109213011092120185E290E07E
:100F200020E1FC01208311C080911201813820F45E
:100F300080911201882349F410921301109212013A
:100F400085E290E020E1FC01208389819A8101966D
:100F50009A838983809144019091450129813A8146
:100F6000281739070CF4B0CF00008B819C810F90BB
:100F70000F900F900F90DF91CF910895CF93DF9353
:100F800000D0CDB7DEB79A83898389819A81009793
:100F900019F0019799F015C080E290E0FC01808182
:100FA000882F90E080719927892B19F01A82198275
:100FB00008C081E090E09A83898303C01A82198275
:100FC000000089819A810097A1F1019709F032C050
:100FD00082E090E0909345018093440182E0809309
:100FE00012018BEF809313018BEF80931C018BEF29
:100FF00080931D0182E08093300181E08093310174
:101000008BEF809314018EEF809315018FEE809308
:1010100016018DEF8093170180E88093180180E41A
:101020008093190181E080931A0184E080931B0171
:1010300001C0000089819A810F900F90DF91CF91BC
:1010400008950F931F93CF93DF93CDB7DEB76197CA
:101050000FB6F894DEBF0FBECDBF81E290E0FC0179
:10106000108282E290E02FEFFC01208384E290E086
:10107000FC01108285E290E02FEFFC01208387E2E3
:1010800090E02FEFFC01208388E290E0FC011082C9
:101090008AE290E02FEFFC0120838BE290E0FC01DC
:1010A00010828CE0E3E5F1E0DE01169601900D92EE
:1010B0008A95E1F786E090E09C838B831D828D8189
:1010C0008093690188EB9BE0A0E0B0E080936A0127
:1010D00090936B01A0936C01B0936D0180916A01B4
:1010E00090916B01A0916C01B0916D0180936E01A4
:1010F00090936F01A0937001B093710180EA93E027
:1011000090937301809372011092740181E090E0DA
:10111000A0E0B0E08093750190937601A0937701F1
:10112000B09378018091750190917601A09177013B
:10113000B09178018093790190937A01A0937B011B
:10114000B0937C018FEC96E090937E0180937D01BB
:1011500010927F0184E690E0A0E0B0E080938001EF
:1011600090938101A0938201B093830180918001CB
:1011700090918101A0918201B091830180938401BB
:1011800090938501A0938601B09387018EEB97E041
:10119000909389018093880110928A0184E690E0FF
:1011A000A0E0B0E080938B0190938C01A0938D011F
:1011B000B0938E0180918B0190918C01A0918D0153
:1011C000B0918E0180938F0190939001A093910133
:1011D000B093920182EC95E09093940180939301F7
:1011E0001092950184E690E0A0E0B0E08093960133
:1011F00090939701A0939801B093990180919601E3
:1012000090919701A0919801B091990180939A01D2
:1012100090939B01A0939C01B0939D018AE497E079
:1012200090939F0180939E011092A00181E090E035
:10123000A0E0B0E08093A1019093A201A093A3014C
:10124000B093A4018091A1019091A201A091A3016A
:10125000B091A4018093A5019093A601A093A7014A
:10126000B093A8018DE396E09093AA018093A90121
:1012700061E070E080E090E00E946E000E949C00BF
:1012800080E290E0FC018081882F90E081709927B6
:10129000892B29F485E290E021E0FC01208380E2A3
:1012A00090E0FC018081882F90E082709927892B43
:1012B00029F485E290E022E0FC01208380E290E0C6
:1012C000FC018081882F90E084709927892B29F474
:1012D00085E290E024E0FC01208380E290E0FC01C4
:1012E0008081882F90E088709927892B29F485E2E6
:1012F00090E028E0FC0120831A821982ADC0898128
:101300009A81880F991F9E012F5F3F4F820F931F75
:101310000596FC0180819181FC0125813681478100
:10132000508589819A81880F991FBE016F5F7F4F19
:10133000860F971F0596FC0180819181FC018181B8
:101340009281A381B481281739074A075B0708F403
:1013500045C089819A81880F991F9E012F5F3F4F59
:10136000820F931F0596FC010081118189819A816A
:10137000880F991F9E012F5F3F4F820F931F059685
:10138000FC0180819181FC012185328589819A81CE
:10139000880F991FAE014F5F5F4F840F951F059611
:1013A000FC0180819181FC018081082E000C990B49
:1013B000F9010995F801808389819A81880F991F25
:1013C0009E012F5F3F4F820F931F0596FC01808186
:1013D0009181FC01158216821782108689819A817B
:1013E000880F991F9E012F5F3F4F820F931F059615
:1013F000FC016081718189819A81880F991F9E010A
:101400002F5F3F4F820F931F0596FC0180819181D2
:10141000FC01258136814781508589819A81880F19
:10142000991FFE0131968E0F9F1F0596FC0180814A
:101430009181FC0181819281A381B481820F931FEC
:10144000A41FB51FFB0185839683A783B08789817D
:101450009A8101969A83898329813A818B819C8123
:101460002817390708F44BCF0000809160018823CA
:10147000E1F31092600104CFA1E21A2EAA1BBB1B5C
:10148000FD010DC0AA1FBB1FEE1FFF1FA217B30750
:10149000E407F50720F0A21BB30BE40BF50B661F66
:1014A000771F881F991F1A9469F76095709580952A
:1014B00090959B01AC01BD01CF010895EE0FFF1F78
:1014C0000024001C0BBE0790F691E02D09940E94A9
:1014D000140B08F481E008950E94800A0C944F0BCD
:1014E0000E94480B58F00E94410B40F029F45F3FE6
:1014F00029F00C94380B51110C94830B0C943E0B77
:101500000E94600B68F39923B1F3552391F3951B67
:10151000550BBB27AA2762177307840738F09F5F14
:101520005F4F220F331F441FAA1FA9F335D00E2E81
:101530003AF0E0E832D091505040E695001CCAF7EE
:101540002BD0FE2F29D0660F771F881FBB1F2617B1
:1015500037074807AB07B0E809F0BB0B802DBF0188
:10156000FF2793585F4F3AF09E3F510578F00C9457
:10157000380B0C94830B5F3FE4F3983ED4F38695CD
:1015800077956795B795F7959F5FC9F7880F911D78
:101590009695879597F90895E1E0660F771F881F64
:1015A000BB1F621773078407BA0720F0621B730B17
:1015B000840BBA0BEE1F88F7E09508950E94E50AA8
:1015C0006894B1110C94830B08950E94680B88F005
:1015D0009F5798F0B92F9927B751B0F0E1F0660FF7
:1015E000771F881F991F1AF0BA95C9F714C0B13038
:1015F00091F00E94820BB1E008950C94820B672F4A
:10160000782F8827B85F39F0B93FCCF38695779566
:101610006795B395D9F73EF490958095709561954F
:101620007F4F8F4F9F4F0895990F0008550FAA0BBA
:10163000E0E8FEEF16161706E807F907C0F01216E5
:101640001306E407F50798F0621B730B840B950BE8
:1016500039F40A2661F0232B242B252B21F408953D
:101660000A2609F4A140A6958FEF811D811D0895DA
:1016700097F99F6780E870E060E008959FEF80EC45
:10168000089500240A9416161706180609060895E8
:1016900000240A9412161306140605060895092E4E
:1016A0000394000C11F4882352F0BB0F40F4BF2BBD
:1016B00011F460FF04C06F5F7F4F8F4F9F4F0895FD
:1016C00057FD9058440F551F59F05F3F71F04795F3
:1016D000880F97FB991F61F09F3F79F087950895D8
:1016E000121613061406551FF2CF4695F1DF08C0F7
:1016F000161617061806991FF1CF86957105610514
:1017000008940895E894BB2766277727CB0197F9BB
:1017100008950E94140B08F48FEF08950E94A10B06
:101720000C944F0B0E94410B38F00E94480B20F0A4
:10173000952311F00C94380B0C943E0B11240C944F
:10174000830B0E94600B70F3959FC1F3950F50E0DF
:10175000551F629FF001729FBB27F00DB11D639F63
:10176000AA27F00DB11DAA1F649F6627B00DA11D09
:10177000661F829F2227B00DA11D621F739FB00DAF
:10178000A11D621F839FA00D611D221F749F33271F
:10179000A00D611D231F849F600D211D822F762FB8
:1017A0006A2F11249F5750409AF0F1F088234AF095
:1017B000EE0FFF1FBB1F661F771F881F9150504001
:1017C000A9F79E3F510580F00C94380B0C94830BC5
:1017D0005F3FE4F3983ED4F3869577956795B79588
:1017E000F795E7959F5FC1F7FE2B880F911D9695A2
:0A17F000879597F90895F894FFCF4C
:1017FA000100000000000002000000007703000062
:10180A00000002FBFBFEEFFD80400104FBFB000031
:10181A0000000000000000000000000000000000BE
:10182A0002010000000000000000000000000000AB
:10183A00000000000200FEFDFBF7EF8040201008C8
:10184A00040201690174017F018A019501A0010066
:00000001FF
