:100000000C944D000C946C000C946C000C946C00DF
:100010000C946C000C946C000C946C000C946C00B0
:100020000C946C000C946C000C946C000C946C00A0
:100030000C946C000C94EA000C946C000C946C0012
:100040000C946C000C946C000C946C000C946C0080
:100050000C946C000C946C000C946C000C946C0070
:100060000C946C000C946C000C946C000C946C0060
:100070000C946C000C946C000C946C000C946C0050
:100080000C946C000C946C000C946C00C103C603BF
:1000900007041B0443042F04570411241FBECFEF91
:1000A000D0E4DEBFCDBF11E0A0E0B1E0E6E8F4E1CE
:1000B00000E00BBF02C007900D92AE37B107D9F731
:1000C00021E0AEE7B1E001C01D92AA3AB207E1F724
:1000D0000E94D7060C94410A0C940000CF93DF9342
:1000E00000D000D0CDB7DEB769837A838B839C8341
:1000F00089819A81AB81BC81809300019093010139
:10010000A0930201B093030180910001909101013D
:10011000A0910201B091030180937F01909380012F
:10012000A0938101B093820100000F900F900F9077
:100130000F90DF91CF910895CF93DF93CDB7DEB7C6
:1001400081E890E02BE0FC01208388E890E02DE737
:1001500030E0FC01318320838FE690E022E0FC0157
:10016000208384E890E0FC011182108280910001DC
:1001700090910101A0910201B091030180937F0150
:1001800090938001A0938101B09382018FE590E06C
:100190002FE530E0F90120812068FC012083000078
:1001A000DF91CF910895CF93DF93CDB7DEB781E88C
:1001B00090E0FC0110820000DF91CF910895CF9371
:1001C000DF93CDB7DEB781E080937E010000DF9141
:1001D000CF9108951F920F9200905F000F9211240B
:1001E00000905B000F922F933F934F935F936F9319
:1001F0007F938F939F93AF93BF93EF93FF93CF938F
:10020000DF93CDB7DEB780917F0190918001A091FF
:100210008101B09182010197A109B10980937F0109
:1002200090938001A0938101B093820180917F011E
:1002300090918001A0918101B0918201892B8A2B3C
:100240008B2B91F40E94DF008091000190910101BD
:10025000A0910201B091030180937F0190938001EE
:10026000A0938101B09382010000DF91CF91FF91B3
:10027000EF91BF91AF919F918F917F916F915F911E
:100280004F913F912F910F9000925B000F90009241
:100290005F000F901F901895CF93DF9300D01F92AF
:1002A000CDB7DEB789836A834B838B81882371F056
:1002B0008A81282F30E081E090E002C0880F991FEA
:1002C0002A95E2F7982F8981892B0EC08A81282FE1
:1002D00030E081E090E002C0880F991F2A95E2F794
:1002E000982F9095898189230F900F900F90DF911F
:1002F000CF910895CF93DF9300D0CDB7DEB7898338
:100300006A838A81282F30E081E090E002C0880F64
:10031000991F2A95E2F7982F898189230F900F90D2
:10032000DF91CF910895CF93DF93CDB7DEB788E209
:1003300090E02FEEFC012083000086E290E0FC01BB
:10034000808160E00E947A01882311F481E3B8C0C3
:1003500086E290E0FC01808161E00E947A018823BE
:1003600011F484E3ADC086E290E0FC01808162E09C
:100370000E947A01882311F487E3A2C086E290E00C
:10038000FC01808163E00E947A01882311F48AE2F3
:1003900097C088E290E02FEDFC012083000086E208
:1003A00090E0FC01808160E00E947A01882311F4D2
:1003B00082E386C086E290E0FC01808161E00E94D9
:1003C0007A01882311F485E37BC086E290E0FC018A
:1003D000808162E00E947A01882311F488E370C072
:1003E00086E290E0FC01808163E00E947A0188232C
:1003F00011F480E365C088E290E02FEBFC012083DC
:10040000000086E290E0FC01808160E00E947A01B9
:10041000882311F483E354C086E290E0FC018081DC
:1004200061E00E947A01882311F486E349C086E2E4
:1004300090E0FC01808162E00E947A01882311F43F
:1004400089E33EC086E290E0FC01808163E00E9487
:100450007A01882311F483E233C088E290E02FE729
:10046000FC012083000086E290E0FC01808160E0D6
:100470000E947A01882311F481E422C086E290E090
:10048000FC01808161E00E947A01882311F482E4FA
:1004900017C086E290E0FC01808162E00E947A0150
:1004A000882311F483E40CC086E290E0FC01808193
:1004B00063E00E947A01882311F484E401C080E0A3
:1004C000DF91CF910895CF93DF93CDB7DEB72C970F
:1004D0000FB6F894DEBF0FBECDBF6D837E838F83D2
:1004E000988729873A874B875C878D819E81AF816A
:1004F000B88529853A854B855C85BC01CD010E9474
:100500008208DC01CB0189839A83AB83BC83898118
:100510009A81AB81BC81892B8A2B8B2B29F489850D
:100520009A85AB85BC8511C089859A85AB85BC85CC
:100530008D839E83AF83B88789819A81AB81BC818B
:1005400089879A87AB87BC87D0CFBC01CD012C9619
:100550000FB6F894DEBF0FBECDBFDF91CF910895E7
:100560000F931F93CF93DF9300D000D0CDB7DEB7AA
:1005700069837A838B839C8380918301909184012A
:10058000A0918501B09186019C01AD0169817A81BC
:100590008B819C810E94AD08882309F477C020E0FC
:1005A00030E0A90169817A818B819C810E94AD082C
:1005B000882351F481E990E021E930E0F9012081BC
:1005C0002870FC01208309C081E990E021E930E036
:1005D000F90120812360FC01208328E539E344E709
:1005E0005FE369817A818B819C810E94AD088823B9
:1005F00044F488E990E02FEF3FEFFC013183208342
:1006000034C020E03CE24BEF56E469817A818B8173
:100610009C810E94CF09181634F488E990E0FC010F
:100620001182108222C008E910E020E030E040E0B2
:1006300053E469817A818B819C810E94D409DC0119
:10064000CB019C01AD0160E074E284EF9AE40E946A
:10065000B208DC01CB01BC01CD010E942409DC0100
:10066000CB010197F8019183808384E990E0FC013C
:100670001182108289819A81AB81BC818093830130
:1006800090938401A0938501B093860100000F90A0
:100690000F900F900F90DF91CF911F910F910895C0
:1006A000CF93DF93CDB7DEB780E990E020E4FC0183
:1006B000208381E990E02BE0FC01208360E070E082
:1006C000CB010E94B0020000DF91CF910895CF933B
:1006D000DF93CDB7DEB780E990E0FC01108281E9BD
:1006E00090E0FC0110820000DF91CF910895CF933C
:1006F000DF9300D01F92CDB7DEB789837B836A83F7
:1007000089818A3031F48A819B81BC018DE00E940D
:10071000770380EC90E0FC018081882F90E080726C
:100720009927892BB1F386EC90E02981FC01208385
:1007300080E090E00F900F900F90DF91CF9108959F
:10074000CF93DF93CDB7DEB763970FB6F894DEBFD4
:100750000FBECDBF9B8B8A8B8A899B89092E000C8B
:10076000AA0BBB0B40E050E026E030E0841B950B69
:100770002817390708F4B1C08A5B9F4FFC010C941D
:10078000A40881E090E09B8B8A8BA8C080E290E077
:10079000FC018081882F90E081709927892B29F4B2
:1007A00082E090E09B8B8A8B99C080E290E0FC0114
:1007B0008081882F90E082709927892B29F483E02B
:1007C00090E09B8B8A8B8AC080E290E0FC01808164
:1007D000882F90E084709927892B29F485E090E098
:1007E0009B8B8A8B7BC080E290E0FC018081882F0C
:1007F00090E088709927892B29F484E090E09B8B06
:100800008A8B6CC081E090E09B8B8A8B67C080E212
:1008100090E0FC018081882F90E081709927892BDE
:1008200029F486E090E09B8B8A8B58C081E090E0B1
:100830009B8B8A8B53C080E290E0FC018081882FE3
:1008400090E082709927892B29F486E090E09B8BB9
:100850008A8B44C081E090E09B8B8A8B3FC080E212
:1008600090E0FC018081882F90E084709927892B8B
:1008700029F486E090E09B8B8A8B30C081E090E089
:100880009B8B8A8B2BC080E290E0FC018081882FBB
:1008900090E088709927892B29F486E090E09B8B63
:1008A0008A8B1CC081E090E09B8B8A8B17C080E212
:1008B00090E0FC018081882F90E0809590958F706A
:1008C0009927892B29F086E090E09B8B8A8B06C0C4
:1008D00081E090E09B8B8A8B01C000008A899B8914
:1008E0008330910509F465C0843091053CF4813072
:1008F000910509F431C1029769F039C1853091053C
:1009000009F4A0C0853091050CF4E1C0069709F404
:1009100025C12DC1809113018E3F29F480911301CF
:10092000809313011DC1809113018E3F09F418C1FA
:1009300080911301869580688093130180916801EE
:100940009091690102970CF40BC18091680190911C
:1009500069019A8389831FC089819A810197885E82
:100960009E4FFC01208189819A81885E9E4FFC0107
:10097000208389819A810197845D9E4FFC012081AB
:1009800089819A81845D9E4FFC01208389819A81AF
:1009900001979A83898389819A8118161906E4F24E
:1009A00080911301809318018091120180932C0192
:1009B000D7C0809113018F3E09F4D4C080911301F8
:1009C000882F90E0880F991F816080931301809198
:1009D00068019091690102970CF4C4C0809168018C
:1009E000909169019C838B831FC08B819C810197AF
:1009F000885E9E4FFC0120818B819C81885E9E4F8A
:100A0000FC0120838B819C810197845D9E4FFC01BA
:100A100020818B819C81845D9E4FFC0120838B8192
:100A20009C8101979C838B838B819C81181619066E
:100A3000E4F2809113018093180180911201809358
:100A40002C0190C080911201803809F48DC08091F2
:100A50001201880F809312018091680190916901C1
:100A600002970CF481C080916801909169019E8386
:100A70008D831FC08D819E810197845D9E4FFC01F7
:100A800020818D819E81845D9E4FFC0120838D811C
:100A90009E810197885E9E4FFC0120818D819E8101
:100AA000885E9E4FFC0120838D819E8101979E83ED
:100AB0008D838D819E8118161906E4F280911301B1
:100AC000809318018091120180932C014DC0809178
:100AD0001201813009F44AC08091120186958093F9
:100AE0001201809168019091690102970CF43EC057
:100AF000809168019091690198878F831FC08F81D1
:100B000098850197845D9E4FFC0120818F81988597
:100B1000845D9E4FFC0120838F8198850197885EBC
:100B20009E4FFC0120818F819885885E9E4FFC013D
:100B300020838F819885019798878F838F819885EF
:100B400018161906E4F28091130180931801809120
:100B5000120180932C010AC0000009C0000007C0E8
:100B6000000005C0000003C0000001C0000080912B
:100B700013018F8780911301888B1A86198605C00F
:100B800089859A8501969A878987809168019091D5
:100B9000690129853A852817390794F38091120154
:100BA000898B1C861B8605C08B859C8501969C873E
:100BB0008B8780916801909169012B853C8528176E
:100BC000390794F381E090E09E878D8720C08D8562
:100BD0009E85885E9E4FFC0190818091130198173D
:100BE00089F48D859E85845D9E4FFC019081809166
:100BF0001201981739F4198A188A85E290E020E1E9
:100C0000FC0120838D859E8501969E878D8780912E
:100C10006801909169012D853E8528173907BCF23E
:100C20008A899B8963960FB6F894DEBF0FBECDBF4D
:100C3000DF91CF910895CF93DF93CDB7DEB700005A
:100C4000DF91CF910895CF93DF9300D01F92CDB75E
:100C5000DEB79B838A83809113018983909112016F
:100C6000809117019817E1F490911301809116017A
:100C70009817B1F480916801909169010196909361
:100C80006901809368018091680190916901885E93
:100C90009E4F2981FC0120831092160110921701AA
:100CA00000000F900F900F90DF91CF910895CF9398
:100CB000DF93CDB7DEB728970FB6F894DEBF0FBE2F
:100CC000CDBF98878F831A82198253C01C821B82E2
:100CD00046C01E821D8235C089819A8186599E4FE9
:100CE000FC0120818D819E81885E9E4FFC01808168
:100CF000281711F58B819C8181599E4FFC01208121
:100D00008D819E81845D9E4FFC0180812817A1F416
:100D10008BE290E029813A8126593E4FF9012081EA
:100D2000FC01208388E290E02B813C8121593E4FD9
:100D3000F9012081FC0120838D819E8101969E8393
:100D40008D8380916801909169012D813E812817E2
:100D5000390714F28B819C8101969C838B838B8154
:100D60009C8108970CF4B5CF89819A8101969A836A
:100D7000898389819A8105970CF4A8CF8F81988502
:100D800028960FB6F894DEBF0FBECDBFDF91CF918E
:100D90000895CF93DF9300D0CDB7DEB79A838983D0
:100DA00089819A810F900F90DF91CF9108950F93D1
:100DB0001F93CF93DF93CDB7DEB72B970FB6F89481
:100DC000DEBF0FBECDBF81E290E0FC01108282E267
:100DD00090E02FEFFC01208384E290E0FC01108280
:100DE00085E290E02FEFFC01208387E290E02FEF77
:100DF000FC01208388E290E0FC0110828AE290E00E
:100E00002FEFFC0120838BE290E0FC01108286E052
:100E1000E7E7F1E0DE01169601900D928A95E1F781
:100E200083E090E09C838B831D828D81809387017A
:100E300084E690E0A0E0B0E080938801909389017F
:100E4000A0938A01B0938B018091880190918901D0
:100E5000A0918A01B0918B0180938C0190938D01B8
:100E6000A0938E01B0938F0180EA93E0909391015B
:100E70008093900184E690E0A0E0B0E0809393013D
:100E800090939401A0939501B09396018091930162
:100E900090919401A0919501B09196018093970152
:100EA00090939801A0939901B0939A0187E596E0F9
:100EB00090939C0180939B0184E690E0A0E0B0E0D9
:100EC00080939E0190939F01A093A001B093A101F4
:100ED00080919E0190919F01A091A001B091A101EC
:100EE0008093A2019093A301A093A401B093A501C4
:100EF00089EC96E09093A7018093A6016AE070E0E8
:100F000080E090E00E946E000E949C0080E290E0F1
:100F1000FC018081882F90E081709927892B29F42A
:100F200085E290E021E0FC01208380E290E0FC017A
:100F30008081882F90E082709927892B29F485E29F
:100F400090E022E0FC01208380E290E0FC018081BF
:100F5000882F90E084709927892B29F485E290E00E
:100F600024E0FC01208380E290E0FC018081882F56
:100F700090E088709927892B29F485E290E028E099
:100F8000FC0120831A821982ADC089819A81880F61
:100F9000991F9E012F5F3F4F820F931F0596FC0103
:100FA00080819181FC01258136814781508589812D
:100FB0009A81880F991FBE016F5F7F4F860F971F21
:100FC0000596FC0180819181FC0181819281A38140
:100FD000B481281739074A075B0708F445C089819F
:100FE0009A81880F991F9E012F5F3F4F820F931F99
:100FF0000596FC010081118189819A81880F991FD2
:101000009E012F5F3F4F820F931F0596FC01808149
:101010009181FC012185328589819A81880F991FF0
:10102000AE014F5F5F4F840F951F0596FC018081D5
:101030009181FC018081082E000C990BF901099522
:10104000F801808389819A81880F991F9E012F5F03
:101050003F4F820F931F0596FC0180819181FC0117
:10106000158216821782108689819A81880F991FAE
:101070009E012F5F3F4F820F931F0596FC016081F9
:10108000718189819A81880F991F9E012F5F3F4F3F
:10109000820F931F0596FC0180819181FC012581BF
:1010A00036814781508589819A81880F991FFE0179
:1010B00031968E0F9F1F0596FC0180819181FC0166
:1010C00081819281A381B481820F931FA41FB51FD8
:1010D000FB0185839683A783B08789819A810196D6
:1010E0009A83898329813A818B819C8128173907CA
:1010F00008F44BCF000080917E018823E1F3109229
:101100007E0104CFA1E21A2EAA1BBB1BFD010DC05C
:10111000AA1FBB1FEE1FFF1FA217B307E407F507A7
:1011200020F0A21BB30BE40BF50B661F771F881F83
:10113000991F1A9469F760957095809590959B0119
:10114000AC01BD01CF010895EE0FFF1F0024001C6C
:101150000BBE0790F691E02D09940E945A0908F4FD
:1011600081E008950E94C6080C9495090E948E099A
:1011700058F00E94870940F029F45F3F29F00C9451
:101180007E0951110C94C9090C9484090E94A60986
:1011900068F39923B1F3552391F3951B550BBB27A6
:1011A000AA2762177307840738F09F5F5F4F220FEB
:1011B000331F441FAA1FA9F335D00E2E3AF0E0E8E2
:1011C00032D091505040E695001CCAF72BD0FE2F2C
:1011D00029D0660F771F881FBB1F261737074807C0
:1011E000AB07B0E809F0BB0B802DBF01FF27935878
:1011F0005F4F3AF09E3F510578F00C947E090C94B5
:10120000C9095F3FE4F3983ED4F3869577956795D7
:10121000B795F7959F5FC9F7880F911D96958795AC
:1012200097F90895E1E0660F771F881FBB1F6217CB
:1012300073078407BA0720F0621B730B840BBA0B89
:10124000EE1F88F7E09508950E942B096894B1116C
:101250000C94C90908950E94AE0988F09F5798F030
:10126000B92F9927B751B0F0E1F0660F771F881FAB
:10127000991F1AF0BA95C9F714C0B13091F00E94C5
:10128000C809B1E008950C94C809672F782F882702
:10129000B85F39F0B93FCCF3869577956795B395EC
:1012A000D9F73EF490958095709561957F4F8F4F5B
:1012B0009F4F0895990F0008550FAA0BE0E8FEEF25
:1012C00016161706E807F907C0F012161306E4070A
:1012D000F50798F0621B730B840B950B39F40A2603
:1012E00061F0232B242B252B21F408950A2609F4E1
:1012F000A140A6958FEF811D811D089597F99F67E5
:1013000080E870E060E008959FEF80EC089500248D
:101310000A941616170618060906089500240A945A
:1013200012161306140605060895092E0394000CE0
:1013300011F4882352F0BB0F40F4BF2B11F460FF6F
:1013400004C06F5F7F4F8F4F9F4F089557FD905898
:10135000440F551F59F05F3F71F04795880F97FB79
:10136000991F61F09F3F79F0879508951216130633
:101370001406551FF2CF4695F1DF08C01616170662
:101380001806991FF1CF8695710561050894089597
:10139000E894BB2766277727CB0197F908950E9429
:1013A0005A0908F48FEF08950E94E7090C949509F3
:1013B0000E94870938F00E948E0920F0952311F0D1
:1013C0000C947E090C94840911240C94C9090E9480
:1013D000A60970F3959FC1F3950F50E0551F629FCA
:1013E000F001729FBB27F00DB11D639FAA27F00D7E
:1013F000B11DAA1F649F6627B00DA11D661F829FA5
:101400002227B00DA11D621F739FB00DA11D621F89
:10141000839FA00D611D221F749F3327A00D611DA6
:10142000231F849F600D211D822F762F6A2F112488
:101430009F5750409AF0F1F088234AF0EE0FFF1FBB
:10144000BB1F661F771F881F91505040A9F79E3F12
:10145000510580F00C947E090C94C9095F3FE4F3B8
:10146000983ED4F3869577956795B795F795E79568
:101470009F5FC1F7FE2B880F911D9695879597F971
:061480000895F894FFCF6F
:1014860001000000000000020000000077030000D9
:10149600000008FB0102FB08FBFBFBFB0000000051
:1014A6000000000000000000000000000804020127
:1014B6000000000000000000000000000000000026
:1014C6000000000000000000000000000000000016
:1014D6000000000001010101000000000000000002
:1014E60000000000000000000400FEFDFBF7EF8096
:0E14F60040201008040201870192019D0100B0
:00000001FF
