:100000000C9446000C9465000C9465000C946500FB
:100010000C9465000C9465000C9465000C946500CC
:100020000C9465000C9465000C9465000C946500BC
:100030000C9465000C94E3000C9465000C9465002E
:100040000C9465000C9465000C9465000C9465009C
:100050000C9465000C9465000C9465000C9465008C
:100060000C9465000C9465000C9465000C9465007C
:100070000C9465000C9465000C9465000C9465006C
:100080000C9465000C9465000C94650011241FBE4F
:10009000CFEFD0E4DEBFCDBF11E0A0E0B1E0E2E2FF
:1000A000F4E100E00BBF02C007900D92A034B1074D
:1000B000D9F721E0A0E4B1E001C01D92A435B20758
:1000C000E1F70E94F7060C940F0A0C940000CF93FE
:1000D000DF9300D000D0CDB7DEB769837A838B83FE
:1000E0009C8389819A81AB81BC818093000190932C
:1000F0000101A0930201B09303018091000190914E
:100100000101A0910201B0910301809341019093FC
:100110004201A0934301B093440100000F900F905F
:100120000F900F90DF91CF910895CF93DF93CDB7CC
:10013000DEB781E890E02BE0FC01208388E890E0C6
:100140002DE730E0FC01318320838FE690E022E050
:10015000FC01208384E890E0FC01118210828091F0
:10016000000190910101A0910201B09103018093DF
:10017000410190934201A0934301B09344018FE564
:1001800090E02FE530E0F90120812068FC01208318
:100190000000DF91CF910895CF93DF93CDB7DEB705
:1001A00081E890E0FC0110820000DF91CF9108957A
:1001B000CF93DF93CDB7DEB781E08093400100009D
:1001C000DF91CF9108951F920F9200905F000F92E0
:1001D000112400905B000F922F933F934F935F93F6
:1001E0006F937F938F939F93AF93BF93EF93FF93FF
:1001F000CF93DF93CDB7DEB780914101909142015B
:10020000A0914301B09144010197A109B1098093E4
:10021000410190934201A0934301B0934401809126
:10022000410190914201A0914301B0914401892B79
:100230008A2B8B2B91F40E94D80080910001909121
:100240000101A0910201B0910301809341019093BB
:100250004201A0934301B09344010000DF91CF918C
:10026000FF91EF91BF91AF919F918F917F916F918E
:100270005F914F913F912F910F9000925B000F90F3
:1002800000925F000F901F901895CF93DF9300D0DE
:100290001F92CDB7DEB789836A834B838B81882316
:1002A00071F08A81282F30E081E090E002C0880F51
:1002B000991F2A95E2F7982F8981892B0EC08A8190
:1002C000282F30E081E090E002C0880F991F2A9526
:1002D000E2F7982F9095898189230F900F900F90C6
:1002E000DF91CF910895CF93DF9300D0CDB7DEB7E4
:1002F00089836A838A81282F30E081E090E002C000
:10030000880F991F2A95E2F7982F898189230F90EA
:100310000F90DF91CF910895CF93DF93CDB7DEB7E4
:1003200088E290E02FEEFC012083000086E290E05E
:10033000FC01808160E00E947301882311F481E355
:10034000B8C086E290E0FC01808161E00E94730108
:10035000882311F484E3ADC086E290E0FC01808143
:1003600062E00E947301882311F487E3A2C086E251
:1003700090E0FC01808163E00E947301882311F406
:100380008AE297C088E290E02FEDFC012083000014
:1003900086E290E0FC01808160E00E947301882386
:1003A00011F482E386C086E290E0FC01808161E086
:1003B0000E947301882311F485E37BC086E290E0FC
:1003C000FC01808162E00E947301882311F488E3BC
:1003D00070C086E290E0FC01808163E00E947301BE
:1003E000882311F480E365C088E290E02FEBFC01E4
:1003F0002083000086E290E0FC01808160E00E94A2
:100400007301882311F483E354C086E290E0FC0179
:10041000808161E00E947301882311F486E349C062
:1004200086E290E0FC01808162E00E9473018823F3
:1004300011F489E33EC086E290E0FC01808163E034
:100440000E947301882311F483E233C088E290E0B4
:100450002FE7FC012083000086E290E0FC01808110
:1004600060E00E947301882311F481E422C086E2D7
:1004700090E0FC01808161E00E947301882311F407
:1004800082E417C086E290E0FC01808162E00E9475
:100490007301882311F483E40CC086E290E0FC0130
:1004A000808163E00E947301882311F484E401C019
:1004B00080E0DF91CF910895CF93DF93CDB7DEB782
:1004C0002C970FB6F894DEBF0FBECDBF6D837E8331
:1004D0008F83988729873A874B875C878D819E8198
:1004E000AF81B88529853A854B855C85BC01CD01F6
:1004F0000E945908DC01CB0189839A83AB83BC83BA
:1005000089819A81AB81BC81892B8A2B8B2B29F421
:1005100089859A85AB85BC8511C089859A85AB850F
:10052000BC858D839E83AF83B88789819A81AB8197
:10053000BC8189879A87AB87BC87D0CFBC01CD01AE
:100540002C960FB6F894DEBF0FBECDBFDF91CF91D2
:1005500008950F931F93CF93DF9300D000D0CDB7B2
:10056000DEB769837A838B839C8380914501909168
:100570004601A0914701B09148019C01AD016981FC
:100580007A818B819C810E947B08882309F477C043
:1005900020E030E0A90169817A818B819C810E94F1
:1005A0007B08882351F481E990E021E930E0F901EA
:1005B00020812870FC01208309C081E990E021E9B5
:1005C00030E0F90120812360FC01208328E539E334
:1005D00044E75FE369817A818B819C810E947B087B
:1005E000882344F488E990E02FEF3FEFFC0131834A
:1005F000208334C020E03CE24BEF56E469817A81ED
:100600008B819C810E949D09181634F488E990E042
:10061000FC011182108222C008E910E020E030E0E5
:1006200040E053E469817A818B819C810E94A20918
:10063000DC01CB019C01AD0160E074E284EF9AE43F
:100640000E948008DC01CB01BC01CD010E94F208B0
:10065000DC01CB010197F8019183808384E990E06C
:10066000FC011182108289819A81AB81BC818093C7
:10067000450190934601A0934701B09348010000C3
:100680000F900F900F900F90DF91CF911F910F91CE
:100690000895CF93DF93CDB7DEB780E990E020E4F3
:1006A000FC01208381E990E02BE0FC01208360E0E5
:1006B00070E0CB010E94A9020000DF91CF91089564
:1006C000CF93DF93CDB7DEB780E990E0FC011082D5
:1006D00081E990E0FC0110820000DF91CF91089544
:1006E000CF93DF9300D01F92CDB7DEB789837B8392
:1006F0006A8389818A3031F48A819B81BC018DE0D3
:100700000E94700380EC90E0FC018081882F90E0D3
:1007100080729927892BB1F386EC90E02981FC0146
:10072000208380E090E00F900F900F90DF91CF91A9
:100730000895CF93DF93CDB7DEB761970FB6F894E6
:10074000DEBF0FBECDBF998B888B88899989823097
:10075000910509F45AC0833091052CF4009779F083
:10076000019791F04BC18430910509F406C18430A2
:1007700091050CF48BC0059709F4C9C03FC181E015
:1007800090E0998B888B3AC180E290E0FC018081F7
:10079000882F90E081709927892B29F482E090E0DE
:1007A000998B888B2BC180E290E0FC018081882F9F
:1007B00090E082709927892B29F483E090E0998B4F
:1007C000888B1CC180E290E0FC018081882F90E042
:1007D00084709927892B29F485E090E0998B888B88
:1007E0000DC180E290E0FC018081882F90E088704C
:1007F0009927892B29F484E090E0998B888BFEC09F
:1008000081E090E0998B888BF9C080E290E0FC0158
:100810008081882F90E081709927892B29F482E0CC
:1008200090E0998B888BEAC080E290E0FC018081A7
:10083000882F90E082709927892B29F483E090E03B
:10084000998B888BDBC080E290E0FC018081882F4F
:1008500090E084709927892B29F485E090E0998BAA
:10086000888BCCC080E290E0FC018081882F90E0F2
:1008700088709927892B29F484E090E0998B888BE4
:10088000BDC081E090E0998B888BB8C080E290E099
:10089000FC018081882F90E081709927892B29F4B1
:1008A00082E090E0998B888BA9C080E290E0FC0107
:1008B0008081882F90E082709927892B29F483E02A
:1008C00090E0998B888B9AC080E290E0FC01808157
:1008D000882F90E084709927892B29F485E090E097
:1008E000998B888B8BC080E290E0FC018081882FFF
:1008F00090E088709927892B29F484E090E0998B07
:10090000888B7CC081E090E0998B888B77C080E2F7
:1009100090E0FC018081882F90E081709927892BDD
:1009200029F482E090E0998B888B68C080E290E0A7
:10093000FC018081882F90E082709927892B29F40F
:1009400083E090E0998B888B59C080E290E0FC01B5
:10095000808180E290E0FC018081882F90E08870A7
:100960009927892B29F484E090E0998B888B46C0E5
:1009700081E090E0998B888B41C080E290E0FC019F
:100980008081882F90E081709927892B29F482E05B
:1009900090E0998B888B31C080E290E0FC018081EF
:1009A000882F90E082709927892B29F483E090E0CA
:1009B000998B888B22C080E290E0FC018081882F97
:1009C00090E084709927892B29F485E090E0998B39
:1009D000888B13C080E290E0FC018081882F90E03A
:1009E00088709927892B29F484E090E0998B888B73
:1009F00004C081E090E0998B888B000088899989F8
:100A00008330910509F461C0843091053CF4813054
:100A1000910509F42CC1029749F032C18430910547
:100A200009F4E1C0059709F499C02AC18091130126
:100A30008E3F29F480911301809313011AC1809194
:100A400013018E3F09F415C18091130186958068CA
:100A50008093130180913E0190913F0102970CF425
:100A600008C180913E0190913F019A8389831FC004
:100A700089819A8101978A5E9E4FFC01208189813C
:100A80009A818A5E9E4FFC01208389819A81019719
:100A9000865D9E4FFC01208189819A81865D9E4FF3
:100AA000FC01208389819A8101979A8389838981B6
:100AB0009A8118161906E4F28091130180931601A9
:100AC0008091120180932A01D4C0809113018F3E3E
:100AD00009F4D1C080911301882F90E0880F991FED
:100AE00081608093130180913E0190913F010297B4
:100AF0000CF4C1C080913E0190913F019C838B8397
:100B00001FC08B819C8101978A5E9E4FFC012081D2
:100B10008B819C818A5E9E4FFC0120838B819C810E
:100B20000197865D9E4FFC0120818B819C81865DB3
:100B30009E4FFC0120838B819C8101979C838B833A
:100B40008B819C8118161906E4F280911301809321
:100B500016018091120180932A018DC080911201AB
:100B6000803809F48AC080911201880F80931201A5
:100B700080913E0190913F0102970CF47EC08091DC
:100B80003E0190913F019E838D831FC08D819E8188
:100B90000197865D9E4FFC0120818D819E81865D3F
:100BA0009E4FFC0120838D819E8101978A5E9E4F1E
:100BB000FC0120818D819E818A5E9E4FFC012083F5
:100BC0008D819E8101979E838D838D819E811816D4
:100BD0001906E4F2809113018093160180911201AD
:100BE00080932A014AC080911201813009F447C0E4
:100BF0008091120186958093120180913E0190911F
:100C00003F010297E4F180913E0190913F01988766
:100C10008F831FC08F8198850197865D9E4FFC0151
:100C200020818F819885865D9E4FFC0120838F8176
:100C3000988501978A5E9E4FFC0120818F8198855F
:100C40008A5E9E4FFC0120838F819885019798874B
:100C50008F838F81988518161906E4F2809113010D
:100C6000809316018091120180932A0108C0000030
:100C700007C0000005C0000003C0000001C0000064
:100C8000809113018F878091130189871B861A86B3
:100C900016C08A859B858A5E9E4FFC0180818823D1
:100CA00049F08A859B858A5E9E4FFC0180819985EB
:100CB000892389878A859B8501969B878A8780916E
:100CC0003E0190913F012A853B85281739070CF397
:100CD000809112018C871E861D8616C08D859E858B
:100CE000865D9E4FFC018081882349F08D859E851D
:100CF000865D9E4FFC0180819C85892B8C878D852C
:100D00009E8501969E878D8780913E0190913F013F
:100D10002D853E85281739070CF38091140191E049
:100D2000882309F490E02091150181E0222309F441
:100D300080E08923882351F08091140199858923CB
:100D40008987809115019C85892B8C8788E290E0AA
:100D50002C85FC0120838BE290E02985FC01208317
:100D60008889998961960FB6F894DEBF0FBECDBF12
:100D7000DF91CF910895CF93DF93CDB7DEB7000019
:100D8000DF91CF910895CF93DF9300D01F92CDB71D
:100D9000DEB79B838A83809113018983909112012E
:100DA000809115019817E1F490911301809114013D
:100DB0009817B1F480913E0190913F010196909374
:100DC0003F0180933E0180913E0190913F018A5EF8
:100DD0009E4F2981FC01208310921401109215016D
:100DE00000000F900F900F90DF91CF9108950F9317
:100DF0001F93CF93DF93CDB7DEB727970FB6F89445
:100E0000DEBF0FBECDBF81E290E0FC01108282E226
:100E100090E02FEFFC01208384E290E0FC0110823F
:100E200085E290E02FEFFC01208387E290E02FEF36
:100E3000FC01208388E290E0FC0110828AE290E0CD
:100E40002FEFFC0120838BE290E0FC01108289E40B
:100E500091E09F838E8381E090E09C838B831D8251
:100E60008D818093490184E690E0A0E0B0E080931A
:100E70004A0190934B01A0934C01B0934D01809196
:100E80004A0190914B01A0914C01B0914D0180938A
:100E90004E0190934F01A0935001B093510189E905
:100EA00093E0909353018093520164E670E080E0F8
:100EB00090E00E9467000E94950080E290E0FC01B3
:100EC0008081882F90E081709927892B29F485E211
:100ED00090E021E0FC01208380E290E0FC01808131
:100EE000882F90E082709927892B29F485E290E081
:100EF00022E0FC01208380E290E0FC018081882FC9
:100F000090E084709927892B29F485E290E024E011
:100F1000FC01208380E290E0FC018081882F90E03A
:100F200088709927892B29F485E290E028E0FC015C
:100F300020831A821982ADC089819A81880F991FF6
:100F40009E012F5F3F4F820F931F0596FC0180810A
:100F50009181FC01258136814781508589819A8163
:100F6000880F991FBE016F5F7F4F860F971F0596F1
:100F7000FC0180819181FC0181819281A381B481F6
:100F8000281739074A075B0708F445C089819A8109
:100F9000880F991F9E012F5F3F4F820F931F059669
:100FA000FC010081118189819A81880F991F9E011E
:100FB0002F5F3F4F820F931F0596FC018081918127
:100FC000FC012185328589819A81880F991FAE01A4
:100FD0004F5F5F4F840F951F0596FC0180819181C3
:100FE000FC018081082E000C990BF9010995F8018C
:100FF000808389819A81880F991F9E012F5F3F4FBF
:10100000820F931F0596FC0180819181FC0115825E
:1010100016821782108689819A81880F991F9E01F6
:101020002F5F3F4F820F931F0596FC0160817181F6
:1010300089819A81880F991F9E012F5F3F4F820FF0
:10104000931F0596FC0180819181FC0125813681E9
:101050004781508589819A81880F991FFE013196B9
:101060008E0F9F1F0596FC0180819181FC0181817B
:101070009281A381B481820F931FA41FB51FFB012E
:1010800085839683A783B08789819A8101969A8305
:10109000898329813A818B819C812817390708F43B
:1010A0004BCF0000809140018823E1F31092400172
:1010B00004CFA1E21A2EAA1BBB1BFD010DC0AA1F63
:1010C000BB1FEE1FFF1FA217B307E407F50720F0B1
:1010D000A21BB30BE40BF50B661F771F881F991F2C
:1010E0001A9469F760957095809590959B01AC0175
:1010F000BD01CF0108950E94280908F481E00895F8
:101100000E9494080C9463090E945C0958F00E94A4
:10111000550940F029F45F3F29F00C944C09511116
:101120000C9497090C9452090E94740968F399234E
:10113000B1F3552391F3951B550BBB27AA276217D3
:101140007307840738F09F5F5F4F220F331F441FE0
:10115000AA1FA9F335D00E2E3AF0E0E832D0915014
:101160005040E695001CCAF72BD0FE2F29D0660F01
:10117000771F881FBB1F261737074807AB07B0E844
:1011800009F0BB0B802DBF01FF2793585F4F3AF04A
:101190009E3F510578F00C944C090C9497095F3FE1
:1011A000E4F3983ED4F3869577956795B795F795D0
:1011B0009F5FC9F7880F911D9695879597F90895B8
:1011C000E1E0660F771F881FBB1F62177307840754
:1011D000BA0720F0621B730B840BBA0BEE1F88F763
:1011E000E09508950E94F9086894B1110C9497094C
:1011F00008950E947C0988F09F5798F0B92F99278D
:10120000B751B0F0E1F0660F771F881F991F1AF0F1
:10121000BA95C9F714C0B13091F00E949609B1E0B7
:1012200008950C949609672F782F8827B85F39F0B6
:10123000B93FCCF3869577956795B395D9F73EF48A
:1012400090958095709561957F4F8F4F9F4F089532
:10125000990F0008550FAA0BE0E8FEEF16161706C7
:10126000E807F907C0F012161306E407F50798F02F
:10127000621B730B840B950B39F40A2661F0232B48
:10128000242B252B21F408950A2609F4A140A695C4
:101290008FEF811D811D089597F99F6780E870E0A9
:1012A00060E008959FEF80EC089500240A941616DC
:1012B000170618060906089500240A941216130644
:1012C000140605060895092E0394000C11F48823D2
:1012D00052F0BB0F40F4BF2B11F460FF04C06F5FEE
:1012E0007F4F8F4F9F4F089557FD9058440F551FC4
:1012F00059F05F3F71F04795880F97FB991F61F098
:101300009F3F79F087950895121613061406551F0E
:10131000F2CF4695F1DF08C0161617061806991F7A
:10132000F1CF86957105610508940895E894BB276F
:1013300066277727CB0197F908950E94280908F4BA
:101340008FEF08950E94B5090C9463090E94550916
:1013500038F00E945C0920F0952311F00C944C09A0
:101360000C94520911240C9497090E94740970F38B
:10137000959FC1F3950F50E0551F629FF001729F3A
:10138000BB27F00DB11D639FAA27F00DB11DAA1F49
:10139000649F6627B00DA11D661F829F2227B00D96
:1013A000A11D621F739FB00DA11D621F839FA00D21
:1013B000611D221F749F3327A00D611D231F849F71
:1013C000600D211D822F762F6A2F11249F575040C8
:1013D0009AF0F1F088234AF0EE0FFF1FBB1F661F43
:1013E000771F881F91505040A9F79E3F510580F00C
:1013F0000C944C090C9497095F3FE4F3983ED4F3A6
:10140000869577956795B795F795E7959F5FC1F7AF
:10141000FE2B880F911D9695879597F90895F8945E
:02142000FFCFFC
:101422000100000000000002000000007003000044
:10143200000002FBFB08FBFB0000000000000000B4
:101442000000000000000000000002010000000097
:101452000000000000000000000000000000020088
:00000001FF
